:04000000FEEFFFF020
:1040000000000102030405060708CDCCCC3D500199
:0140100000AF
:10401200C0A60EEF20F010EF20F017EF20F0C0B492
:1040220015EF20F017EF20F026EF20F0C0B81CEFBC
:1040320020F020EF20F0536A532A21EF20F0536A38
:104042005350556E566A31EF20F0C0A82BEF20F086
:104052002EEF20F0010E2FEF20F0000E556E566A63
:1040620055B002D0C09801D0C088C0B43BEF20F058
:104072003DEF20F04CEF20F0C0B642EF20F046EFCB
:1040820020F0536A532A47EF20F0536A5350576E79
:10409200586A57EF20F0C0A651EF20F054EF20F0FD
:1040A200010E55EF20F0000E576E586A57B002D03D
:1040B200C09601D0C086C0B461EF20F064EF20F05A
:1040C200010E65EF20F0000EFF0A536E5346534671
:1040D200C0505318FB0B5318C06E1A0E546E5E0E6E
:1040E200536E6E0EE82EFED7532EFCD7542EFAD7FF
:1040F20000D009EF20F01200556E546AC5EC22F090
:10410200536E040E5318D8B489EF20F08BEF20F0D1
:104112009CEF20F05504D8B491EF20F093EF20F0FB
:104122009CEF20F0040E5518D8A49AEF20F09CEFD3
:1041320020F0BCEF20F0010103515518F80B55187F
:10414200036FAFEF20F01DA9A9EF20F0ABEF20F035
:10415200AFEF20F0020E546EBEEF20F00239E832CB
:10416200070B5518D8A4B8EF20F0BAEF20F0A4EF4F
:1041720020F0BEEF20F0010E546E545012000301E5
:10418200F96BFA6BD86BFB6BD96BDA6BDB6BDC6BA5
:10419200DF6BE06BE36BE46BE56BE66BE76BEA6BA3
:1041A200EB6BEC6BEE6BEF6BF06BF16BF26BF36B3B
:1041B200F46B100EF56FF66BF76BF86BFC6BAF944C
:1041C200AF96B090000E536E000E546E000E556EF8
:1041D200BEEC22F0000E536E000E546E000E556EB1
:1041E200B0EC22F0000E536E000E546E000E556EAF
:1041F200B7EC22F0840E0301F36F12006F6A020E15
:10420200706E716A1F0E726E4E0E736E746A756AEC
:10421200766A776A796A100E7A6E270E7B6E100EB6
:104222007C6E270E7D6EB39CB39E76907692A39E93
:10423200A39C000E536E000E546E000E556E8DEC54
:1042420022F0000E536E000E546E000E556E86EC78
:1042520022F0000E536E000E546E000E556E94EC5A
:1042620022F0800E786E1200606A020E616E626A3F
:104272001F0E636E4E0E646E656A666A676A686ACE
:104282006A6A100E6B6E270E6C6E100E6D6E270E24
:104292006E6EB29CB29E67906792A29EA29C000E26
:1042A200536E000E546E000E556EA2EC22F0000EFC
:1042B200536E000E546E000E556E9BEC22F0000EF3
:1042C200536E000E546E000E556EA9EC22F0800E55
:1042D200696E12000101018F040E7DEC20F00009CD
:1042E200D8A476EF21F078EF21F094EF21F0000EC0
:1042F20001014C6F380E4D6F000E4E6F000E4F6F66
:10430200E00E006F970E016F100E026F5AEC22F052
:104312006DEC22F076EC22F02FEC22F01BEC22F076
:10432200060E7DEC20F01200BE6ABF6AC06A080E5B
:10433200CA6EC668F80EC76EE20EC86EFD0E0401A4
:10434200106FF70E086F0069216B096B016B116B1F
:10435200026B0A6B126B03690B69136904690C69BE
:104362001469080E246F180E02010A6F460E096FB7
:104372001A0E0B6F0B0E3D6F120040EC22F009EC8F
:1043820020F0250E536E050E546E000E566E000E72
:10439200556E000E586E070E576EFFEC21F01A6A2A
:1043A200020E5C6E450E5B6EAA0EE82EFED75B2EE9
:1043B200FCD75C2EFAD7D1EF21F0FEEFFFF0FE0E14
:1043C200F66E440EF76E000EF86E01EE45F110EE39
:1043D2000EF00900F5C4EEF4E550E150FAE101EE09
:1043E20060F1180EEE6AE806FDE101EE01F1320E0F
:1043F200EE6AE806FDE10001BEEF21F053C559F572
:1044020054C55AF50DEF22F059C5D9F45AC5DAF45C
:1044120055C5DFF4594A5A2A5706D8A058065728D4
:1044220006E15828D8A418EF22F01AEF22F005EF7F
:1044320022F01200536A5350020D520EF324D96E29
:10444200050EF420DA6EDF6A532A5350D8B42CEFEB
:1044520022F02EEF22F01CEF22F01200440E010196
:104462008C6F040E8D6F8E6B8F6BBB0E906F020E76
:10447200916F926B400E936F810E806F12004FEC22
:1044820022F0C0EC20F095EC21F064EC22F0FFEC7D
:1044920020F06BEC21F035EC21F012000001606B92
:1044A200616B626B636B646B656B666B676B686B8E
:1044B2001200040E0101046F040E056F0D0E066F4B
:1044C200010E076F1200700E0001AD6FAF6BB36B80
:1044D200020EB16FB06B12000101506B040E516FEE
:1044E200600E526F050E536F120001015C6B040ED9
:1044F2005D6F600E5E6F050E5F6F12000000484236
:104502000000964300004842010053C536F554C5E9
:1045120037F555C538F5120053C539F554C53AF586
:1045220055C53BF5120053C533F554C534F555C591
:1045320035F5120053C514F554C515F555C516F5D4
:10454200120053C517F554C518F555C519F51200D3
:1045520053C511F554C512F555C513F5120053C5CF
:104562003FF554C540F555C541F5120053C53CF51C
:1045720054C53DF555C53EF5120053C542F554C527
:1045820043F555C544F5120001010239E832070B23
:02459200120015
:020000040001F9
:04FFFC00E0EF21F021
:020000040030CA
:10000000FAEFF7FF9FFFFFFFFFFFFFFFFFFFFFFF7D
:03001000FFFFFFF0
:08001700FFFFFFFFFFFFFFFFE9
:00000001FF
